:020000041000EA
:1000000000B5324B212058609868022188439860DF
:10001000D860186158612E4B002199600221596106
:100020000121F02299502B49196001219960352056
:1000300000F044F80222904214D00621196600F024
:1000400034F8196E01211966002018661A6600F04E
:100050002CF8196E196E196E052000F02FF8012189
:100060000842F9D1002199601B49196000215960AB
:100070001A491B48016001219960EB211966A021F2
:10008000196600F012F800219960164914480160C1
:100090000121996001BC002800D000471248134993
:1000A000086003C880F30888084703B5996A0420EC
:1000B0000142FBD001200142F8D103BD02B5186610
:1000C0001866FFF7F2FF186E186E02BD00000240BE
:1000D000000000180000070000035F00212200005C
:1000E000F4000018222000A00001001008ED00E03C
:1000F00000000000000000000000000074B24E7A12
:1001000000200420F7010010C3010010C5010010F9
:10011000C1010010C1010010C1010010C101001097
:10012000C1010010C1010010C1010010C701001081
:10013000C1010010C1010010C9010010CB01001065
:10014000CD010010CD010010CD010010CD01001037
:10015000CD010010CD010010CD010010CD01001027
:10016000CD010010CD010010CD010010CD01001017
:10017000CD010010CD010010CD010010CD01001007
:10018000CD010010CD010010CD010010CD010010F7
:10019000CD010010CD010010CD010010CD010010E7
:1001A000CD010010CD010010CD010010CD010010D7
:1001B000CD010010CD010010CD010010CD010010C7
:1001C00000BE00BE00BE00BE00BE00BEEFF3058054
:1001D000103800BEF2EB8871108A0010308A0010CF
:1001E0003802001090A31AE71E481F49086006C88D
:1001F00081F3088810471D480068002801D019487D
:10020000F3E70DA40ECC002902D000F012F8F9E7B4
:100210001749184A002000E001C19142FCD116495B
:100220008847164988471649884700BEFDE701C937
:1002300001C29A42FBD37047308A0010C0000020F0
:10024000700C0020E0950010000004200000042045
:10025000E0950010001004200010042000000000B1
:10026000704700000000000008ED00E0000000D032
:10027000700C0020281D00200D410010E503001027
:10028000CD400010F8B5C0460448054B10B5834278
:1002900003D0044B002B00D0984710BD700C0020F9
:1002A000700C00200000000006480749091A8B1056
:1002B000C90FC91810B5491003D0044B002B00D04A
:1002C000984710BD700C0020700C0020000000004A
:1002D00010B5074C2378002B09D1FFF7D5FF054B4C
:1002E000002B02D0044800E000BF0123237010BDA2
:1002F000F80D00200000000070730010054B10B5D1
:10030000002B03D00449054800E000BFFFF7CCFFF5
:1003100010BDC04600000000FC0D002070730010EE
:1003200070B586B004000388402B05D0532B01D054
:10033000002B39D14023238000F0D0F81C4B1B68E0
:10034000984202D1002006B070BD00F0C7F8184EE8
:100350003060184B01251D70174B1D703168174810
:1003600004F026F833681D4218D000F0DFF9144875
:1003700004F01EF80E4B1B68124A142101A803F06A
:100380007FFE012000F054F9012301AA0221002080
:1003900000F0A2F9532323800120D4E70A4804F097
:1003A00007F800F0C9F9E5E7002303800320CAE756
:1003B000181D0020251D0020241D00207073001032
:1003C00090730010B8730010A473001010B503F000
:1003D000BBFF00F089F800F009F9012000F028F9CE
:1003E00010BD000010B503F0AFFF00F094F900F06D
:1003F00053F8FFF7EBFF012000F01AF90A4A012336
:100400000221002000F068F9084B00221A80084BF6
:100410001A80084803F09CFF0448FFF781FF64201E
:1004200001F07AFAF8E7C046C4730010DC1A002025
:10043000E01A0020D4730010134B9A6A134B1B6808
:10044000D31AFA21C9008B4217D3104B1A60D0215E
:1004500009064B689B0A012213404968C90A0A40F1
:100460000B490978C9B2994205D0934206D009498F
:100470000A68013A0A60064A1370704705490A681B
:1004800001320A60F7E7C04600400540B81A002074
:10049000221D0020B016002010B50A2000F060FADE
:1004A0000B2000F05DFAD0231B068022D2009A6256
:1004B000802212019A62002201210A2000F05CF9D8
:1004C000002201210B2000F057F9034B01220C21DF
:1004D0000A2000F0E1F910BD39040010014B186842
:1004E0007047C046B016002070B5122000F038FAF0
:1004F000D02424068023DB026362132000F030FA4C
:1005000080231B036362112000F02AFA80239B02E0
:1005100063626361062000F023FA40236362636133
:10052000102000F01DFA80235B026362162000F0A9
:1005300017FA8025ED036562A5610A2001F0ECF948
:1005400065610A2001F0E8F970BDF0B5C64600B556
:1005500007008846012905D0D0231B0640229A6156
:10056000072415E0D0231B06802292029A61F7E748
:10057000D0231B06802212039A61D0252D068026E7
:10058000F6026E610120002101F0B4F9AE61013C78
:10059000002C09DB3B002341DB07E9D5D0231B06F8
:1005A000802212035A61E8E74346012B06D0D0238C
:1005B0001B0640225A6180BCB846F0BDD0231B0602
:1005C000802292025A61F6E710B5D0231B068022E2
:1005D00052029A61FFF7B9FF10BD10B5D0231B0678
:1005E000802252025A61FFF7B0FF10BD30B589B0CA
:1005F00001A90E4A130031CB31C11A000B0013CAF6
:1006000013C312881A8000240BE001AB1D5D012189
:100610002800FFF7D9FF02212800FFF7D5FF01349A
:10062000E4B2192CF1D909B030BDC046A881001040
:1006300070B5050000260AE029000020FFF7CDFF75
:100640000134E4B263B2002BF6DA0136F6B2032EBF
:1006500010D8502040423043C0B22900FFF7B4FF09
:1006600029000020FFF7B0FF29001020FFF7ACFFA2
:100670000024E7E770BD0000F8B5040017001E0075
:100680001300203BDBB25F2B00D9F8BD5020404265
:100690000843C0B23100FFF797FF0F202040310020
:1006A000FFF792FF200910231843C0B23100FFF773
:1006B0008BFF00240BE03B00203B06489D00ED181B
:1006C0004019005D3100FFF788FF0134E4B2042CCB
:1006D000F1D9DAE7C87F0010F0B5C64600B50500CD
:1006E0000F001600984600E000253278002A0FD04F
:1006F0000136434639002800FFF7BEFFAC1DE5B2C6
:100700002406F2D5022FEFD80137FFB20025ECE71F
:1007100080BCB846F0BD10B50F2000F021F9D02301
:100720001B06802212025A629A6110BDD0231B065A
:10073000802212025A617047D0231B0680221202C7
:100740009A61704710B58300084A9A1814684022CD
:10075000544080322240064CA44663441A60C000D4
:10076000044B9C466044416010BDC04604C001403B
:1007700004D001400040014080000C4B9C46604486
:1007800000290ED00823002A0DD00422134302684A
:1007900053400C221340802252019446604403606F
:1007A00070470023EFE70022F0E7C04604C0014095
:1007B00070B50400D0231B061D680D4BAA00D3584A
:1007C000002B0AD0002803D0094BAD00EC5070BDBF
:1007D00008490D2000F0A4FBF6E70028F7D0044BF1
:1007E000AD00E850034900220D2000F08DFAEEE73D
:1007F00040160020C1080010072303409B00C008DA
:1008000099403C308000014BC1507047004001408E
:10081000F8B507000D0016001C00FFF7EDFFFB0800
:100820009B00E4180720384080008540002E05D04A
:1008300080239B019C4664442560F8BDC0239B0136
:100840009C4664442560F8E770B506000D00141E50
:100850000BD1D0231B061B68002B11D0094B2200A3
:1008600029003000FFF7D4FF70BD0D2000F004FA1E
:100870000028EED1044B054A0548BD2103F02AFCAF
:10088000044BECE73041014048740010C481001073
:10089000107400100041014070B505000E001400F6
:1008A0001800FFF785FF220031002800FFF7CCFF7A
:1008B000002C00D170BD01210D2000F0C3F9F9E733
:1008C000F0B5D6464F464646C0B5D0231B061F6836
:1008D0001F4BBA00D3589846002F03D01D4B9946A2
:1008E000002626E01C4B9946FAE7EB40DB0714D5BF
:1008F00024090135002C1BD033000833AB4217D933
:100900000F231A00224092462342F1D0134BBA0023
:10091000D358202DE9D40023E8E751462800FFF7FB
:100920006BFF4346002BE3D051462800C047DFE76A
:1009300008361D2E06D8F30808339B004A469C58FB
:100940003500D7E7E0BCBA46B146A846F0BDC04680
:10095000401600203041014000410140E41A0020CF
:1009600010B501238340D0221206936293610521C2
:10097000FFF7E8FE10BD000010B58023DB05186806
:1009800003051B0D0B4A934207D10B4B03408022FA
:100990009201934207D1000F10BD084B084A094845
:1009A000222103F097FB084B054A0648232103F058
:1009B00091FBC0462709000000F0FF0F747400107F
:1009C000DC81001098740010D07400100FB400B5D2
:1009D00083B0084803F0BCFC049B002B07D005A99A
:1009E0000191180003F0C4FC034803F0B1FC01209E
:1009F00003F06AFBE4740010F4740010EFF310804D
:100A000072B6034B1B68002BFBD0BFF35F8F7047A0
:100A10002C0100D0BFF35F8F024B00221A6080F3DD
:100A2000108870472C0100D0F8B506000C001500A6
:100A3000FFF7E4FFE308F718F15C072222400123E7
:100A400093400B4205D1DBB20B433B70FFF7E2FF53
:100A5000F8BD21002800FFF7B9FFF0B583B006000C
:100A6000019114001F00FFF7C9FF00E00134BC42F0
:100A70000CD8E308F518F35C0721214001228A40D5
:100A80001A42F3D1D2B21A432A7001E0012464421F
:100A9000FFF7C0FF002C02DB200003B0F0BD019B7C
:100AA000002BF9D00898FFF791FF0000054A107855
:100AB000431CDBB21370172B02D9130010221A70DB
:100AC0007047C046A00B002010B582B00100054C55
:100AD000054B00931F2318222000FFF7BEFF02B032
:100AE00010BDC04650160020F8740010002307E027
:100AF000054A9A189200BFF35F8F002111600133FD
:100B00001F2BF5D97047C04640000034074B9B6847
:100B1000103080001950BFF35F8FBFF35F8F044B1D
:100B20000021196082F310887047C04600ED00E094
:100B3000240100D00048704700E400E010B5FFF742
:100B4000F9FF002302E0034A04C00133072BFAD95E
:100B500010BDC0468080808010B50388DA0A1C2A48
:100B600005D15B055B1502335B00C01810BD034B5C
:100B7000034A16210348FF3103F0ACFA1475001044
:100B80003C8200102C75001010B5091A0B1F0A4A80
:100B900088180A4A904208D8C90706D45B105B053A
:100BA0005B0D0748184380B210BD064B064A08216A
:100BB0000648FF3103F08EFAFC070000FE0F00002C
:100BC00000E0FFFF64750010308200102C750010EB
:100BD00010B5091A04394A08090B08D14905490D0D
:100BE000064B0B430380064B1343438010BD054B5C
:100BF000054A10210548FF3103F06CFA00F0FFFFB1
:100C000000F8FFFF947500100C8200102C75001086
:100C100001238340034A10681840431E9841C0B224
:100C20007047C04600E100E0002A05D0044BC02216
:100C30005200995019607047014A8023D150FAE759
:100C400000E100E010B50A001F2303400121994094
:100C50004009FFF7E9FF10BD01238340014A1360FB
:100C60007047C04600E200E0024B9B6810308000F5
:100C7000C058704700ED00E010B5FFF7F5FF002801
:100C800006D0044B984201D0012010BD0020FCE7A3
:100C90000020FAE7CD01001010B5FFF7E5FF044B87
:100CA000C31A00202F229A424041C0B210BDC04654
:100CB000A40B002070B504000D00EFF3108672B68F
:100CC0000C4B1B68002BFBD0BFF35F8F2000FFF79E
:100CD000CBFF094B984201D0A84205D13200290030
:100CE0002000FFF713FF70BD044B054A0548E721BC
:100CF00003F0F0F9240100D0CD010010A47500101C
:100D0000648200102C750010F0B5DE4657464E4642
:100D10004546E0B589B0814601911500EFF3108B8F
:100D200072B66F4B1B68002BFBD0BFF35F8F6D4B10
:100D300000269E57002E40DB7400A419A4006A48C8
:100D400024180622A256674B1A70684B9A684B46C5
:100D500010339B00D35898461B1A2F2B3BD9644B5A
:100D6000984531D105AF634B3B80634973009A4688
:100D7000981980005C4B984640440230FFF704FF0E
:100D800078805E4BBB80FF23BB71FD71019B079395
:100D9000330053449B00434407CF07C301231C4344
:100DA000A0465A4641464846FFF7B0FE09B0F0BC9F
:100DB000BB46B246A946A046F0BD514B514A7421EC
:100DC0005148FF3103F086F9504B4E4ABD214E4841
:100DD000490003F07FF9012342469A439246101AD4
:100DE0000C2101F07BF900290FD153460027DA7955
:100DF000AA4212D90621595600290DDB4A00521881
:100E0000920039491F008B18F1E7414B3D4A8C2174
:100E10003D48FF3103F05EF91F00002F2ED005ABD7
:100E20003C4A1A80813A5A800623FB560293002BD3
:100E300017DA394805AB9A469880029A9A71DD71A3
:100E4000019A0792381D2100FFF79EFEB880BE71FF
:100E5000254B7200921992009B18524613CA13C375
:100E60009FE7381DFFF778FE0100700080198000B1
:100E70001D4BC0180430FFF787FEDBE705AF1D4BA5
:100E80003B801D49730002939B199B00164A9046B4
:100E90001A0042440392901CFFF776FE7880039A72
:100EA000101D5146FFF770FEB8801C4B524641465C
:100EB000521A524153431B0DBB71FD71019A0792A7
:100EC000029B9B199B00434407CF07C3114B52461B
:100ED0001380813B538001231C43A04661E7C04639
:100EE000240100D0201D0020A40B002000ED00E014
:100EF000CD01001000A1FFFFD40B002001BDFFFFBA
:100F0000DC7500104C8200102C7500100476001067
:100F10002C7600100148000001BD0000AAAA0000C4
:100F2000F0B5CE46474680B583B006000D00EFF31E
:100F3000108872B64F4B1B68002BFBD0BFF35F8F3E
:100F40004D4B9A6834001034A300D7584B4B9F4246
:100F500007D0AF4200D18AE00197494BFB1A2F2BF3
:100F600009D9424639003000FFF7D0FD03B0C0BCBC
:100F7000B946B046F0BD3000FFF74AFE8146002179
:100F80003000FFF75FFEBFF35F8FEFF305810029AD
:100F900001D08C4211D10123019C9C430020A36805
:100FA0009D4212D00622A256002A0DDB53009B1848
:100FB0009B00334A2000D418F1E7324B324AFA2121
:100FC0003248FF3103F086F820009D4249D10625C2
:100FD0006557002D2BDB2A4B6A00521992009B1893
:100FE0009A68A260DA79E2719B795BB2A371002BF7
:100FF0000FDA2748A080224B6A00521992009B18F2
:10100000244A11789971157049463000FFF71AFE8D
:10101000A7E7680040198000194BC0180430FFF79B
:101020009BFD0100231D1800FFF7AEFDE2E700293C
:1010300012D100280ED0FF238371174B83801549EE
:101040000B78A3710E4A154BA41A644163431B0D20
:101050000B70D9E7094FF2E71149201DFFF7B8FDE2
:10106000D2E7104B084A09480F4903F033F8034F01
:1010700077E7C046240100D000ED00E0CD0100106C
:10108000A40B0020B07600101C8200102C750010FC
:1010900001BD0000201D002001BDFFFFAAAA000025
:1010A000DE0B0020E47600103B020000F8B50122C0
:1010B00002432D4BD31A2F2B28D8EFF30583002B97
:1010C0002BD0EFF3108472B6284909680029FBD0B1
:1010D000BFF35F8F244D26490600761B764171438E
:1010E000090D4DB2234989689B00C95891421AD015
:1010F0000021032931D81C4B4A00521892009B183A
:101100009B795BB2AB421ED00131F2E71A4B1B4A0E
:101110009D211B48890002F0DDFF1A4B174A184831
:10112000194902F0D7FF134A92681849D150184B59
:101130001A7882711D70BFF35F8F0C4B00221A600A
:1011400084F31088F8BD084B4A005618B6009E1963
:10115000FF27B7710F4AB280E9E70F4B074AA22178
:101160000748890002F0B6FFA40B0020240100D03C
:10117000AAAA000000ED00E0EC760010F08100105B
:101180002C7500101477001077020000CD010010BC
:10119000201D002001BDFFFF2077001010B582B098
:1011A0000100074C074B0093052300222000FFF7A6
:1011B00054FC002801DB1F23181A02B010BDC046E2
:1011C000271D002028770010024B9C4661448900AF
:1011D000016070474000003410B50400FFF766FC62
:1011E00001002000FFF7F0FFFF232371BFF35F8FA3
:1011F00010BD10B50400FFF759FC01002000FFF7F7
:10120000E3FFFF23237100236371BFF35F8F10BDE2
:1012100010B50D4C09E00D4B0D4A0E481A2102F095
:1012200059FF2000FFF7D8FF08340B4B9C4209D22E
:101230002368002BF5D0012BEDD12000FFF7D9FF5B
:101240000834F2E710BDC046680C00204477001057
:10125000A482001064770010700C0020034B9C46A1
:10126000614489000160BFF35F8F70474000003424
:1012700010B504000120FFF727FC01002000FFF754
:10128000EDFF10BD30B5846A151B0B1D9B001B586C
:101290001B1B9D4204D3046A01238B40234202D1CD
:1012A000043189000A5030BD000408437047000033
:1012B0000A4B1968EFF3108372B60A68002AFCD053
:1012C000BFF35F8F054A1268BFF35F8F0021116083
:1012D00083F3108840BF002000217047F81C0020D5
:1012E000F0B5DE4657464E464546E0B583B0EFF3CF
:1012F000058303221A4011000192AC4B9200D3588F
:1013000098461B788B4207D10123019A93400093A2
:10131000A74B009A1A6019E1A64BA74AA748922149
:1013200002F0D8FE43465A694B465B004B44DB0053
:1013300093469B445B469E68DF68A14800F0B6FB7D
:10134000801BB941002900DA0AE1002F60DB5B460F
:101350001C699C4B9C4245D043460820185E5B4666
:10136000598889B2FFF7A0FF5B465969A04704007E
:101370000D0023002B434BD0002D3DDA3000390007
:10138000001BA9415B469860D96000241C5F002CBB
:1013900000DAE5E043465A69924663001B19DB0018
:1013A00053449A68DB6805000E00AD1A9E41002E7A
:1013B00000DAD5E043461C8147460837BC46634601
:1013C00000255D5F002D1DDB6C006419E4005444B2
:1013D000A268E36806000F00B61A9F41002F11DBD8
:1013E000A446ECE75B465C69236920009847002827
:1013F0000ED065682468BCE7714800F057FB0019FF
:101400006941BFE75B461D804B4662461380A7E0FB
:101410005B4600229B5E424613811269EFF3108304
:1014200072B611680029FCD0BFF35F8F42460221DB
:10143000525E59460A804246494651801269BFF3BE
:101440005F8F0021116083F3108889E0434619699A
:10145000EFF3108372B60A68002AFCD0BFF35F8FE7
:101460004246928812B291460122524241468A80F7
:101470000A69BFF35F8F0021116083F310881AE0BF
:101480009B465B4600229A5E002A0BDB53009B18AA
:10149000DB0053449868D96826002F00361A8F4124
:1014A000002FEDDA4B4659460B80634600215B5E08
:1014B000994663461A804B46002B57DB43465A69D0
:1014C00092464B465B004B44DB009C46D44463464B
:1014D0009C68DD6846460836B346D2E7002342469C
:1014E00093714146083143460820185E11E00122FD
:1014F0005242D317A260E360434608229B5E8342B8
:1015000006D00D80434608229B5E23804346188107
:101510002800431C2ED043465A6943001B18DB00A9
:10152000D418D55E63881BB2002BE0DB2100EFE707
:1015300022002B0001992248FFF7A4FE204800F06A
:10154000B5FA241A8D41002D28DC25D01C4B009AB9
:101550005A63434608229B5E9946002B00DBE1E676
:1015600043469B881BB2002B00DB6FE743469B7909
:10157000002BB3D1434608229A5E002A0EDB434675
:10158000596953009B18DB00CB189C68DD68631C0D
:10159000CED16B1CD2D0CBE7002CD7D040BF03B04C
:1015A000F0BCBB46B246A946A046F0BDCC1A00200E
:1015B0003C700540EC770010D082001018780010C5
:1015C00000400540E112001070B504000D0011004C
:1015D0000126AE4006622800FFF76CFB01212800BF
:1015E000FFF730FB024B9C466444266070BDC0464A
:1015F00038200000F8B5CE46474680B5060089463B
:1016000090461F00C160FFF751FA154B9C4660449D
:101610008000306143463370BBB27381D022120622
:1016200012787270012252423281B2809B1873800C
:10163000002406E0621E736965002D19ED005A53FF
:101640000134BC42F6D3074B42469200D650064ABC
:1016500041464846FFF7B8FFC0BCB946B046F8BDA2
:1016600040000034CC1A0020E112001010B5064BE7
:101670001B69002B01D0044810BD044B044A0548E7
:10168000652102F027FDC046EC0B002048780010D1
:10169000B882001018780010F8B504000569EFF35F
:1016A000108072B629680029FCD0BFF35F8F022139
:1016B000665E656971008919C9006D18002E02DB2C
:1016C0000027E95F61802169BFF35F8F00270F600A
:1016D00080F31088002E2CDB069929610799696137
:1016E000AA60EB606B8801335B04590C002B00D1BE
:1016F000012169803000FFF7D7FD2169EFF31083E6
:1017000072B60A68002AFCD0BFF35F8FA2882A80D5
:10171000A6802269BFF35F8F0021116083F31088D8
:10172000E368217801228A4003498C4663441A60A9
:10173000F8BD01204042FBE73C20000070B582B0BC
:10174000060014001D0008AB1B78002B07D100F029
:10175000C3F922002B00121A8B41002B0ADB079BD6
:101760000193069B009322002B003000FFF794FFAB
:1017700002B070BD0020FBE7F0B5C64600B584B0EE
:101780000500884616001F000AAB1C78FFF76EFFA5
:101790000294019700962A004346FFF7CFFF04B05A
:1017A00080BCB846F0BD000030B5030008145A896B
:1017B00090422EDA5C6942001218D200A2181D690C
:1017C000EFF3108472B628680028FCD0BFF35F8F57
:1017D000508880B20904090C884212D000201A698E
:1017E000BFF35F8F0021116084F31088002811D0AF
:1017F000DA681B7801319940074B9C4662441160BE
:1018000008E00649014389B2518001229A71012002
:10181000E5E7002030BDC0463C2000000080FFFF0F
:1018200010B50400FFF722FF2100FFF7BDFF10BD38
:1018300040787047F0B583B006000F00EFF30583E2
:10184000002B1AD106246442E517A4197D418D426C
:1018500002D803D1844201D90024002500F03CF9CC
:1018600022002B00121A8B41002B0BDC08D0300019
:10187000390000F039F903B0F0BD1A48FFF7A6F8B7
:10188000002AF4D0184A0023009320002900FFF713
:1018900073FF002818DAEAE7002300E00023002B9A
:1018A000E5D1124B1968EFF3108372B60A68002A6B
:1018B000FCD0BFF35F8F0D4A1268BFF35F8F00212A
:1018C000116083F3108820BF094B5B6A9D42E5D805
:1018D0000749896AA14203D29D42DDD00123DEE798
:1018E0000123DCE76C780010B1120010F81C002016
:1018F0000040054070B504000D0000F0EDF800193F
:101900006941002902DBFFF795FF70BD01204042CD
:101910000049F8E7FFFFFF7F10B5FA22920000238D
:10192000002101F017FAFFF7E5FF10BDF0B5CE4634
:10193000474680B583B005000C00EFF30583002B0C
:1019400015D0434B5B6A8B4209D3414A926A82426B
:101950000BD28B4201D0012002E0002000E00020E9
:1019600003B0C0BCB946B046F0BD0120F8E7FFF7B0
:101970007DFEC3689946037898462E0027004846A6
:1019800000F094F802000B00B61A9F41434604335E
:101990009B004A469B581B1A0022BA420FDC0CD00F
:1019A00020BF2B4B5B6A9C4220D8294A926AAA42EC
:1019B0001ED29C4218D00120D2E7B342F0D9254A6A
:1019C0000023009328002100FFF7D6FE002811DD38
:1019D0001F4B5B6A9C4221D81D4A926AAA422FD2B1
:1019E0009C4219D001231AE00020B9E70020B7E794
:1019F0000120B5E7164B5B6A9C4209D8144A926AEB
:101A0000AA4207D29C4201D00120A9E70020A7E703
:101A10000020A5E70120A3E7002300E00023002B1E
:101A200000D120BFFFF7FCFE094B5B6A9C420BD83C
:101A3000074A926AAA4209D29C4203D001208FE74A
:101A40000123ECE700208BE7002089E7012087E7EE
:101A500000400540B11200100048704700400540AA
:101A600010B50B4B1B69002B04D00A480A21FFF765
:101A7000ABFB10BDFFF7F0FF0400032100F00CF8F2
:101A80000348102303222100FFF7B4FDEDE7C04611
:101A9000EC0B0020F81C002010B5024A0248FEF7AB
:101AA000C3FF10BDBC780010541600200200436A2A
:101AB000906A1900536A9942FAD17047416A00E06E
:101AC000416A9942FCD300E0416A994202D1816A9D
:101AD0009142F9D37047000010B50248FFF7E6FFC6
:101AE00010BDC0460040054010B502000B00024882
:101AF000FFF7E4FF10BDC04600400540F8B5D646EC
:101B0000474680B506000D0017009846440024188B
:101B1000A400294B9C4664446368089A934200D20F
:101B20006260331FDBB29A46012B2ED9802212014C
:101B3000C0239B01E3181A60204BB200D158002942
:101B400007D0586900F0CAFA013043001B18033B64
:101B5000FDD27F0123685F40E0233B408022520199
:101B6000A21813605346012B1AD980239B01E31856
:101B7000802212011A60089B6360104BB600424637
:101B8000F250C0BCBA46B046F8BD012DCED10322FA
:101B9000C0239B01E3181A60A368DB07FCD5D8E7D4
:101BA0002168694003230B401360A3680122AA4007
:101BB0001A42FAD0D9E7C0460080004058160020EB
:101BC000F0B583B005000E0017001800089900F06A
:101BD00085FA0300089A140200943A0031002800A4
:101BE000FFF78CFF03B0F0BD10B582B08024640015
:101BF0000094FFF783FF02B010BD0000014B80008E
:101C0000C058704758160020F0B5C64600B504000D
:101C10000E0017001D00374800F060FA8046364B72
:101C2000FA18364B9A4239D80100380000F056FABB
:101C30000200103A98235B009A4235D86B1E062B9F
:101C400038D8069B013B062B34D83F09474537D38C
:101C50002D04069B1B031D432368002B36DB284BFA
:101C60009C4244D00C2201239340264A1360264A0A
:101C70001360264A1268190091430A1EF9D12660A2
:101C8000A060234BE31821321A602268002AFCDA94
:101C9000E56008221A6080BCB846F0BD1D4B1E4AA4
:101CA0001E48112102F016FA1D4B1B4A1B48192130
:101CB00002F010FA1B4B184A18481C2102F00AFACD
:101CC000194B154A1548232102F004FA22683F23D4
:101CD0001340B342C3D1A3681B051B0D8342BED181
:101CE000E368EE22D2021340AB42B8D1D3E70D2213
:101CF000B9E7C046001BB70080E84BD380F8A93293
:101D000000C0024000E0004000F0004008C0004079
:101D100004300000E0780010E882001030790010F4
:101D20006879001084790010D0790010024B1A688D
:101D3000024B5A607047C046BC1A00200080054024
:101D400010B5184B8022D2051A60174B174A1A603B
:101D500000290AD0164BE022D2041A60002809D1CB
:101D6000134B802212061A6010BD0E4BE022D204E3
:101D70001A60F3E743011B1A9B001A18D2000D49A1
:101D80000A6018180001086080235B04984201D3A0
:101D9000094A0A60FFF7CAFF054B8022D2051A6084
:101DA000E2E7C04600B0054008200140FCFF01000A
:101DB00000A00540BC1A0020FFFFFF0010B5030083
:101DC00010000C4A8024E4051460002B0DD0012281
:101DD0001343094A094CD461094C5C4014625162B6
:101DE00093620021FFF7ACFF10BD034B0022DA61C4
:101DF000F7E7C04600B0054000800540D3C007B0FB
:101E00002D3FF84F80239B000B43014AD36270475C
:101E10000080054010B5010018231B88142210888B
:101E2000984710BD10B5010018231B881622108892
:101E3000984710BDF0B5C64600B507000E00002556
:101E40000123984600E00135B5420AD2AC003C19A6
:101E50002068FFF7DFFF20600028F4D100239846B8
:101E6000F1E7404680BCB846F0BD000070B5040004
:101E70000D000648FFF7CEFF0300002C03DB012016
:101E8000A040290098470020FBE7C04655420000CB
:101E9000074BAA2212011A608D225200DA60054B0C
:101EA000054A1A60024B5B68002BFBDA7047C0469C
:101EB000004002400060024000B0FA0010B504008B
:101EC00001E008CC9847024B9C42FAD310BDC046B3
:101ED000647300107047000010B50248FFF7EEFF72
:101EE00010BDC04628730010054B064A1A60064B09
:101EF000064A1A60064B1A68044B9343FAD170479E
:101F000000E00040BFCDFBFE00F00040FE7F3C0043
:101F100008C00040044BDB6C002B03D1034B802234
:101F2000D2021A607047C046000011504C20115078
:101F3000044B054A1A60054B1B68DB43DB01FAD1F1
:101F40007047C04600F00040FFFFFF0108C000409E
:101F5000034B40229A675A671A67DA667047C04691
:101F600000F0014010B5FEF7C1FD10BD70B5044D85
:101F7000A968044CC022200000F0ACFFAC6070BD2A
:101F800000ED00E00000002070B50420FFF736FEF1
:101F9000064900F0A3F805000024002C00DD70BD08
:101FA000E0B22900FFF72EFF0134F6E740420F00B0
:101FB00030B583B0274B00229A67FFF769FF264BA5
:101FC00001221A60234B5B6C012BFBD1234B0322B4
:101FD0001A60204B9B6B012BFBD101330093043320
:101FE0001F4A01211F48FFF70FFE052300931E4AD9
:101FF00001211E48FFF708FE1D4B0022022104208C
:10200000FFF7F2FD1B4D2B00002201210520FFF7F9
:10201000EBFD194C2300002200210720FFF7E4FD0F
:102020002300002200210820FFF7DEFD8023DB00D3
:1020300000932300002200210920FFF7C1FD2B009F
:10204000002200210620FFF7CFFDFFF79DFF03B020
:1020500030BDC046008000403CB0004030B0004081
:10206000002F685900800240008C864700C0024063
:10207000001BB70040597307006CDC0201480421C3
:10208000014B1847100C0020351E0010124A936FA8
:102090009B0815D29066D166002905D0FFE7FFE7BF
:1020A000FFE7516F106F704704B580210906C21712
:1020B0005140002800D0C84305F0E6F8002104BDD7
:1020C000F0B5146E556E576F166FFFF7E3FF146689
:1020D000556657671667F0BD000000D0114A936F30
:1020E0009B0813D210665166002905D0FFE7FFE771
:1020F000FFE7516F106F704704B5002801D0002032
:10210000C04305F0C1F8002104BDC046F0B5146E0F
:10211000556E576F166FFFF7E5FF146655665767E4
:102120001667F0BD000000D094464A4A926F9208AC
:10213000624601D228E0C046F0B5464E346E756E58
:10214000776F366F00F020F89446424A1466556661
:10215000576716676246F0BD94463E4A926F9208F2
:10216000624601D254E0C046F0B53A4E346E756E08
:10217000776F366F00F04CF89446364A1466556611
:10218000576716676246F0BD002B24DB11D000298B
:102190003EDA00B5C943404200D1013100F038F8C1
:1021A000C943404200D10131DB43524200D10133E7
:1021B00000BD002AEBD1002801D1002905D0002064
:1021C000C90FC90701D1C043410800B505F054F853
:1021D0000022002300BD00B500290ADBDB43524288
:1021E00000D1013300F014F8C943404200D101315D
:1021F00000BDC943404200D10131DB43524200D10E
:10220000013300F005F8DB43524200D1013300BD39
:10221000002923D1002B18D1002A0CD0BC460D4F29
:1022200038667A6600210023FFE7FFE7FFE77A6F51
:10223000386F67467047002801D00748010000B595
:1022400005F01AF80022002300BD02000B00002058
:1022500000217047000000D0FFFFFFFF002B00D0DF
:10226000BFE0130C28D1002AE7D080B4114F3966A3
:102270007A66FFE7FFE730B4040C7B6F396F1B040D
:1022800023433B667A66FFE7FFE7FFE7C04684B279
:102290007B6F3D6F1B0423433B667A66FFE7FFE7D6
:1022A000C04600232C042D0C7A6F386F0019694149
:1022B000B0BC7047000000D0F0B594460025140E65
:1022C00001D112020835140F01D112010435940F07
:1022D00001D192000235D40F01D152000135D40B47
:1022E0000134254F7C66254C3C660E0C93B2FFE70B
:1022F000FFE7FFE73C6F6643360C7703BE46734348
:10230000DF0B5B04C01AB941130C7343DB18C91A05
:10231000CE086643360CB64493B273431F0F1B01BD
:10232000C01AB941130C73431F0B1B05C01AB941E6
:10233000860D8F023E436643360C092D24DB520A7C
:102340007243801A7703460A6643360C16235B1BDA
:10235000DE40DF40BF1964466643821B7046043589
:1023600006330100D940A840C01900D30131A24270
:1023700006D20023F0BD0000000000D0FFFFFFFFE9
:10238000121B0130F3D3F1E709277F1BFE4064469F
:10239000A2B27243801A00D20139220C7243130C8C
:1023A0001204821A99410B0070460435133701005C
:1023B000F940A840801900D30131002B02D1A2427C
:1023C0000AD2F0BD013000D30131121BFAD2013B19
:1023D000F8D1A24200D2F0BD013000D30131121B6E
:1023E000F7E7F0B51C0C00D080E00CB400251C0A07
:1023F00004D11B02160E3343120208351C0B04D104
:102400001B01160F3343120104359C0B04D19B00B2
:10241000960F334392000235DC0B02D192185B41D8
:1024200001351C00971864410134464F7C66464CC8
:102430003C660E0CFFE7FFE7FFE7C0463C6F6643D4
:10244000360C7703BE4697B27743C01B00D20139E2
:10245000C01B00D201399FB27743C91BC91B170C9F
:1024600077437E04FF0B801BB941CE086643360CD0
:102470000C2D33DBB644120B1F053A431B0B97B2EE
:102480007743C01B00D201399FB27743C91B170C99
:1024900077433E043F0C801BB941860D8F023E43BB
:1024A000664329277F1BFE400C3D7746AF40BF198E
:1024B00030BCA2B2ABB272437343801A9941220C72
:1024C0007243130C1204801A994102000B00013769
:1024D000001BA941F9D2781E0021F0BD0C277F1BFB
:1024E000FE4077467F0BAF40FF19E0E700245D1CFC
:1024F00007D0144F7D663966FFE7FFE7FFE7FFE788
:102500003C6F95B29EB265436643401BB141150CCA
:102510001E0C6543664336042F0C3E432D04401BBE
:10252000B141994204D202000B0020000021F0BD0D
:1025300001D19042F7D3801A994101349942F2D3E4
:10254000F6E70000000000D0FFFFFFFF48404140D9
:10255000484018B41B4B5B68FC46019308BD04DF80
:102560002728001018B4174B1B68FC46019308BDC0
:1025700000DF312800109446134A926F920809D266
:10258000624618B40F4BDB68FC46019308BD0CDFB4
:10259000E92A00100C4AF0B5146E556E576F166F8D
:1025A0006246FFF7EEFF084A1466556657671667DE
:1025B000F0BD18B4034B9B68FC46019308BD08DFCF
:1025C0008D290010F41A0020000000D0FFB5504003
:1025D0004240504059404B40594000E0FFB5154F34
:1025E0004C00640D03D0BC4204D10C0314D800206D
:1025F000090D09055C00640D03D0BC4204D11C0325
:102600000AD800221B0D1B0501264B4009D44B4064
:1026100003D58B4200D18242FFBD9942FCD190424A
:10262000FFBD0B43DB1803431343F5D0C9434918DF
:10263000FFBD0000FF07000000B5FFF7CFFF80419E
:1026400000BDC04600B5FFF7C9FF01D9002000BD9D
:10265000012000BD00B5FFF7B9FF01D9002000BD82
:10266000012000BD00B5FFF7B1FF804100BD012092
:1026700040054A00121804D85A00121801D8002048
:1026800070470120704700000021002805D17047E5
:10269000C1174840401AFAD0C90713B5064B1B684A
:1026A00098470CBC441CA2401005120B0349091B9F
:1026B00009051943114310BDF41B00201F0400003D
:1026C00010B54C00620D8023D218DB00D21A5B05D6
:1026D0007E2A10DD9E3A13DACC1709034908194304
:1026E0005242D140640001341532202A05DAD0402C
:1026F0000843604310BD002010BD0846604310BD74
:10270000C80FC018013810BD18B4044B5B6AFC46F2
:10271000019308BD24DF992C00100000F41A00205A
:1027200070B513231C78012C12D0012C12DC214B24
:10273000214A93642148FFF76DFB214B186070BD5F
:102740001C491D4A9800815001331F2BF8D9ECE732
:102750000023FAE71B48FFF765FB05001A48FFF75F
:1027600061FB023803789B007F2B09DD1248802231
:10277000290000F0AFFB022C08D0022CDADCD6E7EF
:10278000124B134A1348332101F0A4FC124B1A8850
:10279000B5231B029A4209D1104B1A88104B9A425A
:1027A00004D1104B1A88104B9A42E6D00020FEF755
:1027B0000DF9C046ED270010F41A00204C3300003C
:1027C000F41B00205344000053460000EC79001035
:1027D000F4820010307A001054380000D83800001D
:1027E000494600009C3800005946000007B5604685
:1027F000002800D100BE01880A0A0230DF2AFAD17F
:10280000C9B2820804D3028840880004104300E063
:102810000068024A5050039007BD0000F41A0020DF
:102820000FB403BC0CBCF0B50124E407634000E026
:10283000F0B50C0DCF0F661E3605891B640503D35A
:10284000C943404200D30131640D03D0661CF60A2F
:1028500007D0E41B00207F00791C89078912803C87
:1028600024031D0DDF0F6E1E36059B1B6D0503D364
:10287000DB43524200D301336D0D03D06E1CF60AC8
:1028800007D0ED1B00227F007B1C9B079B12803D25
:102890002D032F1B661B58D4A446202E46DA203762
:1028A0001400BC401D00BD40F24033412A43801853
:1028B0005941CB0F05D0C943C04300226442504167
:1028C000514162464D0D28D10D0D07D100281FD072
:1028D000241940414941013A0D0DF9D0640006D355
:1028E000013000D30131002C01D140084000013AF1
:1028F0000BD4941CE40A04D112051144DB071944DB
:10290000F0BDD907204B194300E0D9070020F0BDE6
:102910000029DDD1002CDBD1F0BD0132C607400813
:10292000CD0728434908002EE1D0D9E73C2E29DA0B
:10293000203E40371400BC4000D00124F240144334
:102940001A00BB401C43D317ACE7AC46202F08DA73
:1029500020360400B4400D00B540F840394128430A
:10296000A5E73C2F0CDA203F40360400B44000D0ED
:102970000124F84004430800B1400C43C117EAE7C2
:1029800010001900002494E70000F07FF0B50C0D52
:10299000661E3605891BE60A6405640D02D0651CB7
:1029A000ED0A04D0002001210905803C2403A4463F
:1029B0001C0D671E3F05DB1BE70A6405640D02D092
:1029C000651CED0A04D0002201231B05803C240372
:1029D0007740644497B484B296B27443070C7E4344
:1029E000150C6F4380B26843361802D301200004EF
:1029F0003F183004350C00197D41844688B29AB2E4
:102A000050430C0C62431F0C7C438EB27E439219E0
:102A100002D301263604A4191604170C3618674190
:102A200001BC81B29AB25143040C62431B0C5C435B
:102A300080B25843121802D3012000042418100455
:102A4000130C401863412D185E410020474106BC1D
:102A500088B293B258430C0C6343120C544389B2AE
:102A600051435B1802D301210904641819041A0C9C
:102A7000091862416D1856410020474118BCF902FF
:102A8000720D1143F0026A0D1043ED020A0D03D1DD
:102A90006D1940414941013B124E9B1B7600B342E8
:102AA0000ED26D0007D301300026714166463543D2
:102AB00001D1400840001B05C918E4072144F0BDBE
:102AC0000BDA013306D1013004D101314F0D01D0B1
:102AD0004908F2E7E1070020F0BD0136310500208A
:102AE000EBE70000FF030000F0B51C0D671E3F057B
:102AF000DB1BE70A6405640D02D0661CF60A04D0ED
:102B0000002201231B05803C2403D0252D0600262E
:102B1000F6432E661E096E66CE0FF619B4464900BE
:102B20004F0D02D07E1CF60A03D000200021403F4A
:102B30003F033E1BB600B444013F7F05C91B490853
:102B40002E6F013676089C02950D25437543ED13D3
:102B50007543AD1301356D10F603761B0CB4CC0232
:102B6000450D2C43A2B2B3B25A43270C7B43350C1C
:102B70006F43A4B26C431B1902D3012424043F19F0
:102B80001C041D0CA4187D4124196D41009A91B2BA
:102B9000ACB26143170C7C432B0C5F4392B25A4397
:102BA000A41802D301221204BF182204230C5218C5
:102BB0007B41019C6C431B19520ED9010A4344010D
:102BC000A01A81B2B2B2514303145A43360C734374
:102BD00087B27743D617D21900277E4136049B1956
:102BE0001704160C7F185E417316ED18F3010026CA
:102BF00080337541A90F06D16400690AE8055B0AB4
:102C0000184309D22FE00422944480337541A90A65
:102C1000A8059B0A184326D3404149412404009A41
:102C2000019B0D005543641B4343E41A95B286B2E1
:102C30007543170C7E43030C5F4392B25A43B61898
:102C400002D301221204BF183204330C52197B4103
:102C500052429C41002C02D40022013051414008D4
:102C6000CA071043490802B06246D7079210084BC2
:102C7000D218084B9A4203D212058918C919F0BD1F
:102C80000020002A01DC3900F0BD01331905F5E709
:102C9000FD030000FE070000002200B5203200F016
:102CA00004F8080000BD000000220B150AD410B57E
:102CB000944600F031F81414013400DA0021CB17E7
:102CC000144C20470020002170476244343A0CD451
:102CD0000C2A07DA04009140904052422032D4403E
:102CE000214310BDD843D94310BD203207D40C4630
:102CF0009440524220321141D040204310BD080080
:102D0000C917203203D452422032104110BD18009E
:102D1000190010BDCB2C00100A0DCC0F531E1B0543
:102D2000C91A520503D3C943404200D30131520DA1
:102D300003D0531CDB0A07D0121B00206400611C67
:102D400089078912803A1203014BD21A704700009A
:102D5000FF03000051434343C9188C46110C83B252
:102D60004B4310B4040C614392B280B250436243AF
:102D70001C041B0C001910BC59411304120CC01880
:102D8000514161447047000070B513231E782A48F2
:102D9000FFF748F80500012E11D0012E09DDAB1E0A
:102DA0001B789B007F2B40DD24488022290000F007
:102DB00091F82348FFF72EF8224B186070BD1F488A
:102DC0005422290000F086F81F4B1A881F4B9A42A4
:102DD0001CD1A7239B011A881D4B9A4216D11D4B6B
:102DE0001A881D4B9A4211D11C4B1A8894239B01BF
:102DF0009A420BD11A4B1A881A4B9A4206D11A4B97
:102E00001A681A4B9A4201D1152307E01848FDF7BA
:102E1000DDFD184C094A99008C5001331F2BF8D95D
:102E2000144B064A1362D361B7E7134B134A144895
:102E3000422101F04FF9C04653460000F81B002024
:102E40004C330000F41B0020EE290000C40F0000EA
:102E5000C20D0000962B0000C0B50000182B00002A
:102E6000CC2A000010B50000FC2C000051ED876456
:102E7000647B0010852E0010787A00100883001003
:102E8000AC7A001007B56046002800D100BE01886A
:102E90000A0A0230DF2AFAD1C9B2820804D30288B2
:102EA00040880004104300E00068024A505003903C
:102EB00007BD0000F81B002001480421014B184702
:102EC000200C0020351E0010014B1B681847000025
:102ED000200C0020014B5B6818470000200C0020EC
:102EE0009A4200D288547047704710B5002802D02B
:102EF0000B684968984710BD0100002007E0830077
:102F00001B185B00501C08601078C01830380A6825
:102F10001378303BDBB2092BF1D97047F0B5DE46B0
:102F200057464E464546E0B583B093461F000C9B7E
:102F30009A460D9C0E9B99460F9B9B0703D0B84663
:102F40000F00060022E00192A34688464E46B9468D
:102F50000700B44207D2551C4B4641462020B847D3
:102F600001342A00F5E73D004F465C46019B9B4635
:102F7000B1464646B84637002E0007E0013C551CD6
:102F80005346185D43463900B0472A00002CF5D15E
:102F900035003E0047460F9B9B0707D4100003B047
:102FA000F0BCBB46B246A946A046F0BDB0464E4670
:102FB000B9462F005D46531BB342EFD2541C4B461B
:102FC00041462020B8472200F5E7F0B5CE464746F7
:102FD00080B585B0944698460C9D0D9C0EAB1B7831
:102FE0009946109A119B129EB7071CD4002B0CD047
:102FF000F7070AD54F46002F02D10C37374204D0CD
:10300000013B02E030272F550134944201D21F2C9E
:10301000F8D9F70707D59C4205D21F2C03D83027D3
:103020002F550134F5E7F70612D5770505D4002CA6
:1030300003D0944221D09C421FD00F9A102A32D044
:103040000F9A022A37D01F2C0AD830222A55013471
:103050001F2C05D84A46002A33D02D222A55013488
:10306000039602930194009543466246FFF756FF8C
:1030700005B0C0BCB946B046F0BD621E012C10D0F0
:103080000F9F102F0BD014000F9A102AD8D1B20620
:10309000D6D51F2CD4D858222A550134D3E7023C68
:1030A000CBE71400C9E7B206EED41F2CECD8782287
:1030B0002A550134C7E71F2CD2D860322A55013473
:1030C000C1E7720703D52B222A550134C8E732071E
:1030D000C6D520222A550134C2E7F0B5DE46574650
:1030E0004E464546E0B593B081468A46089209931C
:1030F0001CAB10CB1B789B461E9D219B9846002C39
:1031000003D1102342469A4390468023DB00464673
:103110001E4042461A4212D0002C22D000260EE059
:103120003033D9B2771C0AAB995529002000FEF73D
:10313000D5FFAC4216D31F2F14D83E00040029003F
:103140002000FEF7CBFFCBB2092BE9D9424692060D
:1031500005D54121C918C9B20A39C9B2E2E76121CE
:10316000F8E7270043460693209B05931F9B049393
:1031700003955B46029301970AAB0093099B089A5B
:1031800051464846FFF721FF13B0F0BCBB46B2469C
:10319000A946A046F0BDF0B5DE4657464E46454628
:1031A000E0B597B00A900B910C929A46209B9946F5
:1031B000219F22AA13789B46249B0993259C289B38
:1031C00098464A463A4302D11032934398468022A9
:1031D000D20045461540434613420AD04A463A4378
:1031E00041D000252E0053460D934D46099B9A462B
:1031F0001BE02E0053460D934D46099B9A4614E062
:103200003033DAB2731C99460EAB9A5552462300FE
:1032100028003900FEF7A0FFBC4226D819D04B4643
:103220001F2B1CD84E4605000F00524623002800D5
:103230003900FEF791FFD3B2092BE1D9424692063D
:1032400005D54122D218D2B20A3AD2B2DAE76122C7
:10325000F8E7AA45E3D94E460D9B9A4608E04E464C
:103260000D9B9A4604E0002602E04E460D9B9A46CE
:1032700043460693279B0593269B0493099B039340
:103280005B46029301960EAB009353460C9A0B9942
:103290000A98FFF79AFE17B0F0BCBB46B246A946A3
:1032A000A046F0BDF0B5DE4657464E464546E0B571
:1032B00091B0804689460C929A461A9C1B9D22002A
:1032C0002B0020002900FFF7D2F9002800D0ECE005
:1032D00001225242D44B20002900FFF7C3F90028F5
:1032E00000D0E2E001225242D04B20002900FFF73B
:1032F000A3F9002800D0D8E00022002320002900F4
:10330000FFF79AF9002800D0E4E00694079580239F
:10331000DB001E9A1A400D921E9A1A4201D1062312
:103320001C930698079902000B000892099303006A
:103330000A00024300D1D9E0080D4005400DBC4E03
:10334000B44660440A03120B1E00BA4B13431F001D
:10335000FFF79EF9B84AB94BFFF72BF9B84AB94BBA
:10336000FFF700F9089009910022B74B30003900AF
:10337000FFF7EFF8B54AB64BFFF71BF902000B0059
:1033800008980999FFF7EEF8FFF79AF98346FFF7D7
:103390007FF906000F00AF4AAF4BFFF70AF9002292
:1033A000AE4BFFF7DFF8FFF78BF90890AC4AAD4B57
:1033B00030003900FFF7FDF806000F000898FFF70E
:1033C00067F9A94AA94BFFF7F4F802000B00300097
:1033D0003900FFF7BEF806000F0002000B00FFF7F0
:1033E000E8F80A900B91089BA14A94466344002197
:1033F0000022089109921B050993002308933200CB
:103400003B0030003900FFF7ADF80E900F9132000D
:103410003B0000208021C905FFF79BF806000F0044
:103420000022944B0A980B99FFF7A5F80022924BC3
:10343000FFF798F802000B000A980B99FFF79BF82A
:1034400000228E4BFFF78EF802000B000A980B99B2
:10345000FFF791F802000B0030003900FFF782F807
:1034600002000B000E980F99FFF785F80022714BB0
:10347000FFF778F8089A099BFFF79BF806000F0002
:1034800008960997069A079BFFF7ECF800282FD0BB
:1034900001235B429C46E3440022774B3000390015
:1034A000FFF769F80890099122E01E9B04931D9B89
:1034B00003931C9B02930094019553460C9A494632
:1034C000404600F0FFF811B0F0BCBB46B246A9463A
:1034D000A046F0BD002100220691079206948023A9
:1034E0001B069C46AC446346079310E700239B46AB
:1034F0005B466333C62B20D804261E9B1B0528D5AC
:10350000089A099B190011430FD05D4A5D4B06983C
:103510000799FFF79FF800287AD000225A4B0698A7
:103520000799FFF789F8002872D01C9B5B4506DDE0
:103530005A469B1A013B1C9303E00526DDE7002356
:103540001C938023DB001E9A1A431E920026002340
:103550009B461D9B9E4265D29F1B02231E9A1A40CA
:103560000A921E9A134202D0002E00D000275B461A
:10357000002B07D0089A099B06980799FEF7FBFFD6
:10358000069007910022002320002900FFF754F83D
:10359000002800D07CE03D4B1E9A13400493039713
:1035A0001C9B0293069B079C0093019453460C9A24
:1035B0004946404600F086F8002E00D183E71E9B66
:1035C0009B0671D54525441C5346020049462800F8
:1035D000C0475A46D317D2185A4005230593013ED7
:1035E0000496002303930A3302935B46DB0F019397
:1035F00000925346220049464046FFF76EFD0A9B63
:10360000002B00D15FE7020047460C9E1D9D53E052
:103610001C9B002B9DD00D9B002B9AD01C9B013B2B
:103620001C9396E7002798E7FFFFEF7FFFFFEFFF70
:1036300001FCFFFF0000F03FFB799F501344D33F94
:10364000B3C8608B288AC63F0000F83F61436F63B0
:10365000A787D23F71A379094F930A400000E03F4A
:103660001655B5BBB16B0240EF39FAFE422EE63F6C
:10367000FF03000000002C40000024400000184020
:103680002D431CEBE2361A3F80842E41FFF7FFFFEB
:10369000069C079D22002900802000068446614484
:1036A0000B000692079376E765258CE7541C53467A
:1036B00049462020B8472200931BAB42F6D31000A6
:1036C00001E7C046F0B5DE4657464E464546E0B5F2
:1036D00095B00690079193469946209F1E9A1F9B8E
:1036E00010001900FEF7C3FF002831D10122524219
:1036F000BF4B1E981F99FEF79FFF002837D101226C
:103700005242BC4B1E981F99FEF7ACFF00283DD1DA
:103710000022B94B1E981F99FEF7A4FF002850D134
:103720000022B64B1E981F99FEF786FF002848D14D
:10373000002200231E981F99FEF77EFF002850D11B
:1037400000239846229B5B0500D4B6E0002458E095
:10375000229B0393219B029303230193A84B009385
:103760004B465A4607990698FFF7D8FB0EE1229B75
:103770000393219B029304230193A24B00934B4696
:103780005A4607990698FFF7C9FBFFE00423229ADF
:103790001A4022990B4210D09B4B002A0FD00422D2
:1037A0002299039121990291019200934B465A4626
:1037B00007990698FFF7B2FBE8E0944BEDE7032288
:1037C000EEE7229B0493219B039302971E9B1F9C71
:1037D000009301944B465A4607990698FFF762FDFD
:1037E000D4E01E9A1F9B00200021FEF7B2FE1E901F
:1037F0001F9101239846A5E70CAB30221A55013FD3
:1038000001341F2C01D8092FF6D81E981F99FEF7F6
:1038100057FF0500FEF73CFF02000B001E981F99A2
:10382000FEF797FE7A4BFA009B181A685B680A92BB
:103830000B93FEF7BEFE08900991FEF765FF0600A8
:10384000FEF722FF02000B0008980999FEF781FE9F
:103850000890099100226F4BFEF704FF00282ED03C
:1038600001363000FEF710FF02000B000A980B999A
:10387000FEF7E8FE002801D001350026002F2CD1EC
:103880002800FEF705FF02000B001E981F99FEF7A7
:1038900060FE06000F0000225E4BFEF7CDFE002802
:1038A00046D100225B4B30003900FEF7DBFE0028DA
:1038B0003ED1EB073CD501353AE0062746E700222A
:1038C000544B08980999FEF7B7FE0028D6D1002E70
:1038D00001D0F307D2D50136D0E7AA461F2C11D864
:1038E000013F0A213000FEF7F9FB651C30310CABBB
:1038F00019550A213000FEF7F1FB092E0ED90600FA
:103900002C00EBE755461F2C0CD87B1E002F09D04E
:103910000CAA302111551F000134F4E72B00554645
:103920001C00F0E71F2C03D80CAB2E221A550134D3
:103930001F2C10D80A212800FEF7A8FB661C303186
:103940000CAB19550A212800FEF7A0FB051E01D07B
:103950003400EDE734000323229A1340012B1CD0DE
:103960001F2C06D84346002B32D00CAB2D221A5503
:103970000134229B0393219B029301940CAB00938F
:103980004B465A4607990698FFF7C8FA15B0F0BC9F
:10399000BB46B246A946A046F0BD219B002B13D0E2
:1039A0004346002B02D10C3313420FD0219B013B25
:1039B0002193190003E00CAB30221A5501348C42DC
:1039C000CED21F2CF7D9CBE72199F8E72199F6E75A
:1039D000229B5B0704D50CAB2B221A550134C8E798
:1039E000229B1B07C5D50CAB20221A550134C0E71A
:1039F000FFFFEFFFFFFFEF7F65CDCD4165CDCDC16F
:103A00004C7B0010507B0010407B0010487B001066
:103A1000108500100000E03FF0B5DE4657464E46E8
:103A20004546E0B593B082468846934611930029F7
:103A300000D10DE300255646119B1878002800D1CF
:103A400009E3252809D06C1C5B462A004146B04793
:103A5000119B013311932500EEE7013311930027E9
:103A600020E001231F4301321192012418E00223B8
:103A70001F4301321192012412E004231F4301323B
:103A8000119201240CE008231F43013211920124FA
:103A900006E010231F4301321192012400E00024AC
:103AA000002C09D0119A1378203BD9B21029F6D8EE
:103AB0008B00C849CB589F46119B1A781300303BA6
:103AC000DBB2092B10D92A2A13D00B94119B1A7838
:103AD0002E2A1ED0119A1378683BD9B2122959D8D0
:103AE0008B00BD49CB589F4611A8FFF705FA0B90F4
:103AF000ECE71C9B1A1D1C921B68002B04DB0B932C
:103B0000119B01331193E1E7022217435B420B93B0
:103B1000F6E78022D20017435A1C11925A781300FC
:103B2000303BDBB2092B0BD92A2AD3D11C9B1A1D9F
:103B30001C921C68002C08DB119B01331193C9E710
:103B400011A8FFF7D9F90400C4E70024F4E78023A3
:103B50005B003B43511C119151786C2901D01F002F
:103B600018E0C0239B001F430232119212E0802311
:103B70003B43511C11915178682901D01F0009E085
:103B8000C0231F430232119204E080235B001F43D5
:103B900001321192119B1878672818D8252800D275
:103BA0004CE20300253BDAB2422A00D946E29300F8
:103BB0008A4AD3589F4680239B001F4301321192AB
:103BC000E8E780235B001F4301321192E2E7782887
:103BD00000D933E2692800D230E20200693AD2B259
:103BE000012393407E4A134211D11A0600D500E208
:103BF0005B0500D422E21C9B1A1D1C921B689A468E
:103C0000002C00D0B2E10122524253468EE16F28CF
:103C10000ED006D858283DD0622804D102239C46F5
:103C200008E0782839D010239F43063B9C4601E0EA
:103C300008239C46582833D0692803D0642801D033
:103C40000C2297437A0501D50122974369282AD08F
:103C5000642828D0BA0500D59FE0FA0500D5C1E058
:103C60007A0600D4D3E01C9A111D1C911168FF2222
:103C70000A4005970B9B0493039463460293002329
:103C8000019300925B462A0041463000FFF725FA77
:103C9000050027E010239C46CCE710239C46C9E78B
:103CA00020221743C8E7BA0520D4FA0550D47A0673
:103CB00066D51C9A111D1C911168FF220A40D0176D
:103CC0001118414005970B9B04930394634602939C
:103CD000D20F019200915B462A0041463000FFF767
:103CE000FCF90500119B01331193A5E61C9A0732DC
:103CF00007218A43110008311C91116853689946C5
:103D0000DB170C930D930C9A0D9B100048400E90FE
:103D10004A4653400F930E980F990C9A0D9B801AA8
:103D200099410E900F9108970B9B07930694634659
:103D30000493002305934B46DA0F02920090019101
:103D40005B462A0041463000FFF725FA0500C9E727
:103D50001C9A111D1C911268D0171118414005972B
:103D60000B9B0493039463460293D20F019200913C
:103D70005B462A0041463000FFF7AFF90500B1E786
:103D80003A0605D51C9A111D1C910023D25E96E7B8
:103D90001C9A111D1C91126891E71C9A0732072189
:103DA0008A43110008311C9108970B9B07930694D6
:103DB00063460493002305930293536812680092AC
:103DC00001935B462A0041463000FFF7E4F9050005
:103DD00088E7C04670830010B48300100084001090
:103DE000419000001C9A111D1C9105970B9B049398
:103DF00003946346029300230193136800935B4688
:103E00002A0041463000FFF768F905006AE73A06E4
:103E100006D51C9A111D1C9112681204120C28E779
:103E20001C9A111D1C91126823E7462819D01C9B6F
:103E30000733072293431A0008321C9204970B9A07
:103E4000039202941A685B68009201935B462A0011
:103E500041463000FFF736FC0500119B01331193FA
:103E6000EAE520231F43E2E7672801D0472802D173
:103E700080231B011F43452801D0472801D120235F
:103E80001F431C9B0733072293431A0008321C92DE
:103E900004970B9A039202941A685B68009201934C
:103EA0005B462A0041463000FFF7FCF90500119BF4
:103EB00001331193C0E502231A003A4091463B4278
:103EC0001DD001241C9B1A1D1C926F1C18785B4688
:103ED0002A004146B0474B46002B14D1119B0133B9
:103EE00011933D00A8E5571C5B4641462020B04792
:103EF00023003A005C1C9D42F5D81500E2E701233F
:103F00002A000B9DF6E73A00B1460B9E06E0571CCF
:103F10005B4641462020C8472C003A00651CA6425B
:103F2000F5D817004E46D9E701330A001978002961
:103F300002D0511E002AF7D152469B1A8022D2008D
:103F4000390011408946174202D0A34200D923000C
:103F500002221100394010913A4209D02A0025006E
:103F600057469A4633004E46994621E022004CE6D9
:103F70002A004546A04606E0541C5B462900202046
:103F8000B0473B0022005F1C0B999942F4D844468D
:103F9000A8463B00250057469A4633004E469946B0
:103FA00006E01D000137541C5B464146C84722000D
:103FB0003878002804D0002EF4D06B1E002DF0D1EC
:103FC000150053464E46109A002A03D1119B013327
:103FD000119331E50B9F2A0006E0551C5B464146D4
:103FE0002020B04723002A005C1C9F42F5D8150012
:103FF000ECE721233B431C9A111D1C911268059389
:10400000082304930394083302930023019300923E
:104010005B462A0041463000FFF75FF80500119B20
:104020000133119308E56C1C5B462A0041462520AC
:10403000B047119B013311932500FDE46C1C5B46D6
:104040002A004146B047119B013311932500F3E448
:104050000A4B9A46EEE4B2465D450DD35B465A1EC6
:104060005B4641460020D047280013B0F0BCBB4659
:10407000B246A946A046F0BD2A00F1E7E92E00109D
:104080000CB430B585B00A0008AC08CC0394054DDB
:10409000009401002800FFF7BFFC05B030BC08BC4D
:1040A00002B01847E12E001000B585B002900391D0
:1040B00001210448009313004A4202A9FFF7ACFC17
:1040C00005B000BDEB2E001000BEFDE710B5FFF7F8
:1040D000FBFF000030B583B00D001900002A0BD0A3
:1040E000074B084C019200932B000200200000F0C7
:1040F0005FF90120FFF7E8FF034B1A00F1E7C04624
:10410000587B0010687B0010647B001010B5EFF343
:104110000583002B00D000BEFDF7DEFE034C01E05E
:1041200008CC9847024B9C42FAD310BD6473001030
:104130007073001010B50300080011001B68984749
:1041400010BD0000F8B507000D001600437D002BE0
:1041500002D0002400200CE00368110028009847DA
:104160002DE03B7D10E03B68154802219847601C1C
:104170000134B44214DA002CF3DD2B19013B1B7817
:104180000D3B5A425341DBB22A5D0A2AF0D1002B83
:10419000EED1A042E7DA3B68211A28189847E2E7F7
:1041A000B04203DA3B68311A28189847002E06DD22
:1041B000AD19013D2B780D3B5A4253413B75F8BD7B
:1041C0006085001070B505000368002B16D00C4BFD
:1041D0001C6805E0290004C92000FFF7B3FF24692B
:1041E000002C09D02368002BF9D0064B1B68002B4C
:1041F000F0D0A342F3D1EDE700232B6070BDC046A1
:10420000A8160020B416002070B505000C000B683D
:10421000802B05D023685A1C2260E418257170BDDC
:104220000800FFF7CFFFF5E710B5FDF755FC074A8B
:10423000002312184B41002B03DB054803F03CF828
:1042400010BD01225242034BF7E7C04640420F0027
:10425000680C0020FFFFFF7F10B5024803F004F850
:1042600010BDC046680C0020F0B5CE46474680B56C
:1042700083B006000D0090461C00FFF7D5FF814675
:104280006B1C05D0002C08D0184F194B1C6807E098
:10429000300002F055FF0500F4E7164FF5E72469FA
:1042A000002C17D02368002BF9D0134B1B68002B70
:1042B00001D0A342F3D12A0031002000B847434681
:1042C000002BECD06B46D91D0A230B700122200075
:1042D000B847E4E74B46002B05D1280003B0C0BC2B
:1042E000B946B046F0BDFFF7B7FFF6E7454100100D
:1042F000A816002035410010B4160020094A01E03C
:1043000010331A001368002B08D08342F8D100291B
:1043100007D1036913600023036102E0002900D084
:1043200010607047A816002010B5064B1C6801E00D
:1043300098472469002C03D06368002BF8D1F8E774
:1043400010BDC046A816002010B500F0C9F910BD78
:1043500070B5050002F0F4FE040001230122010003
:104360002800FFF781FFFFF7DFFF200070BD00008E
:1043700070B5A2B004000E00FFF756FF0500002341
:1043800001930A483300220001A9FFF78DFE0400C3
:1043900001A8FFF717FFFFF7C7FF002D02D120008C
:1043A00022B070BDFFF758FFF9E7C0460942001080
:1043B0000FB400B583B004A901C90191FFF7D8FF7C
:1043C00003B008BC04B0184770470000014B00223E
:1043D0001A707047211D00204B79FF2B0CD18B796F
:1043E000002B0BD1CB79012B0AD1082A0AD98A7864
:1043F000054B1A70092000E0002070470020FCE700
:104400000020FAE70020F8E7211D00200120704776
:1044100010B5012928D1117953791B020B43134997
:1044200009788B4201D000201FE05378012B03D084
:10443000022B12D0002018E09178D3781B02194388
:10444000DB0507D5480A4A0A01231A407E33194082
:10445000FDF70CFD01204042F5E764220021002019
:10446000FDF7ACFC012000E0012010BD211D002063
:10447000004870472C86001010B51400012910D197
:104480005378012B0FD1127963791B021343072B49
:1044900001D0002006E0054A9F33210001F05EFBB9
:1044A00000E0012010BD0020FCE7C046848500101C
:1044B00001230370004870476485001010B50A7826
:1044C0004B781B0213438A7812041A43CB781B06DD
:1044D00013439622D200934200D010BD0120002247
:1044E00011004042FDF7C2FC024B1860024B1960FC
:1044F0007047C046481600204C16002010B5FDF746
:10450000EBFA0E4A002312184B41002B12DB0C4829
:1045100002F0D2FE00280CD001200021404201F020
:10452000E9F9002001F088FC0028F5D1044802F0E8
:104530009BFE10BD01225242024BE8E740420F00B1
:10454000FC1C0020FFFFFF7F10B5024B1878FCF722
:1045500083FB10BD231D00200268EFF3108172B6AB
:104560001368002BFCD0BFF35F8F416070470000E1
:1045700070B5144B1B68002B1AD0124C2000FFF7AB
:10458000EBFF114B00221A7021686368BFF35F8F45
:104590000A6083F31088002400250C4B1878FCF780
:1045A00037FB002808D1002400252000290070BD19
:1045B000FA24A4000025F0E7044B1878FCF74CFB24
:1045C000F3E7C046C41A0020261D0020231D00204A
:1045D000F0B585B0060014001D000CAB1F78FDF788
:1045E0007BFA22002B0012184B41002B09DB0297AB
:1045F0000B9901910A9900913000FDF79FF805B0E1
:10460000F0BD01225242014BF1E7C046FFFFFF7FA0
:10461000F0B5C64600B584B00500884616001F00F8
:104620000AAB1C78FDF722F80294019700962A0045
:104630004346FFF7CDFF04B080BCB846F0BD000094
:1046400010B582B02048002102F026FE00281AD1C1
:104650001E4B1B68002B14D01C4C2000FFF77CFF66
:104660001B4A137801214B40DBB2012111702168F4
:104670006268BFF35F8F0020086082F31088002B10
:1046800017D102B010BD01200021404201F032F9E3
:10469000002001F0A9FB04000B4802F0E5FD002C0E
:1046A000EFD00C4B1B68002BEBD00B4A10689847DF
:1046B000E7E70A4A012300930023FA208000002143
:1046C000FFF7A6FFDDE7C046FC1C0020C41A00204F
:1046D000261D0020481600204C16002071450010B1
:1046E00010B582B0D0231B061C68FCF7BFFFFDF796
:1046F0009FF8A04230D1274B1B780021002002F008
:1047000065F8254B1B68002B2CD00120FCF746FDDB
:10471000224C20702249FF231840FCF7CBFA207866
:104720000121FCF78FFA0520FCF7B6FA041E1DD014
:104730000120FCF7C9F901001A4B1800FCF78EFDA7
:10474000194900220520FCF7DFFA18480121FFF77C
:10475000D5FD200002B010BD154B164A1648C121E8
:10476000FFF7B8FC0C48FCF737FDCEE70D480822F0
:104770000021FEF7A9FB114A012300930023FA2030
:1047800080000021FFF744FFC043C40F0028E0DA97
:10479000DBE7C0462C8A0010FC1C0020231D0020F3
:1047A00041460010C41A002049450010300C00207A
:1047B000E47600105C860010987B001071450010B4
:1047C00010B5002001F0F4FA10BD000070B505002E
:1047D0000C00FFF7F5FF002834D0002001F004FBA7
:1047E000002832D0FDF778F91B4A002312184B41FC
:1047F000002B19DB194802F05FFD002828D0FFF7D5
:10480000DFFF002804D0002001F0EEFA00280FD1CD
:1048100001200021404201F06DF8032464420F485A
:1048200002F022FD200070BD012252420C4BE1E754
:1048300022002900002001F0E3FA041EEFD1032436
:104840006442ECE703246442ECE703246442E9E7B2
:1048500003246442E6E7C04640420F00FC1C0020EF
:10486000FFFFFF7FF0B5C64600B580460C00FDF7A0
:1048700033F9314A002312184B41002B07DB2F4834
:1048800002F01AFD002806D180BCB846F0BD012216
:1048900052422B4BF3E7FFF793FF002849D1294BF6
:1048A0000020002118605960244802F0DDFCEBE78D
:1048B00001200021404201F01DF8002001F0BCFA67
:1048C000FFF77EFF0028EFD0002001F037FB002823
:1048D00020D0A542E8DA661B002001F02FFB020081
:1048E000864200DC3200002AE2D0434659190020FB
:1048F00001F000FB060001200021404200F0FAFF19
:10490000002001F099FAAD19FDF7E6F80D4B18609B
:104910005960DEE7FDF7E0F80A4B1E685F680A4A57
:10492000002392197B419942BED8D2D19042D0D96E
:10493000BAE70025CDE7C04640420F00FC1C00202E
:10494000FFFFFF7FF00D002020A107000048704707
:10495000D8860010004870478486001010B5040007
:10496000154B1B78002B0ED0002C11D1134B144A81
:104970005A80012301335B009BB21048C022920091
:104980001343038010BD0C48112100F025F8EBE71C
:10499000052C0ED80B4BA400E4580023122BE9D8A9
:1049A000E15C0029E6D00133044A58008152DBB2B1
:1049B000F4E70020E6E7C046041D00208016002032
:1049C000090400006C86001010B5024800F032F8AF
:1049D00010BDC046EC1A002010B5002901D00023FC
:1049E0000AE0104B104A11483531FFF773FB0022E3
:1049F0000DE03732C25401334A1E9A420ED90F2BB2
:104A00000CD85A080A4CA45CDA07F0D404221441EA
:104A10000F222240092AECDC3032EBE7C0180023D9
:104A2000037010BD187C0010EC860010207C001074
:104A3000EC1A002030B589B0040004AD0D2200212D
:104A40002800FEF741FA0D2200216846FEF73CFAE5
:104A50004B232B700D226946280002F0FDFB00233A
:104A600004E05A1D69468A5CE2540133072BF8DDE5
:104A700009B030BD70B57F230340C509264C5E00E8
:104A800076197601A419A070684268416070002010
:104A9000E0702183E276012D1DD0D8001F4A944694
:104AA00060441D4A590049194901521890601A4A38
:104AB0005900491949015218926800211160002BD0
:104AC0000FD1154A5B005B195B01D31800225A60B5
:104AD000134ADA6070BDD800124A94466044A06060
:104AE000E5E7012D0BD0591EC9000F4A94466144D9
:104AF000094A5B005B195B01D2185160EAE7591E55
:104B0000C9000A4A94466144034A5B005B195B0191
:104B1000D2185160DEE7C046B8160020840010505D
:104B200000011050800010500C0010500800105070
:104B300010B5038B3F333F229343C27E022A08D035
:104B400008490A68C260D3180B60074A934202D82A
:104B500010BD5B00F4E7054B054A06485221FFF7FC
:104B6000B9FAC046C01A0020FF0F1050EC7D0010AB
:104B70004C870010307E0010F8B57F250540C6092F
:104B80006B009B195B010E4C1C19FFF773FF002D86
:104B900000D1F8BD0A4B6D00AD196D015D19298B6F
:104BA0002000FFF7C5FFEB7E9B06E968054A4A40F7
:104BB00013438022120613436A681360E9E7C04674
:104BC000B81600200000105010B504007F202040CF
:104BD000E409400000194001024BC01800F026F91A
:104BE00010BDC046B816002010B5002804D1012120
:104BF0000520FCF727F810BD034B044A9821044810
:104C0000FF31FFF767FAC046947E00103C87001022
:104C1000307E001010B5002805D100220021802030
:104C2000FFF7D2FF10BD034B034AA2210348FF3117
:104C3000FFF750FA947E00102C870010307E001091
:104C4000024B80225202DA647047C04600201150A5
:104C500070B5041E27D100F0C7F8164D0C23AB67C2
:104C60001549FF220520FCF74FF814484022002187
:104C7000FEF72AF9002240210020FFF77DFF0022E5
:104C800040218020FFF778FF02F02EFB01232B64E8
:104C900080239B05EB649023094AEA502000FFF72C
:104CA000CFFF012070BD074B074A64210748FF3141
:104CB000FFF710FA0000115069040020B816002018
:104CC00010D00100947E001060870010307E00102C
:104CD000044B1970002904D0034A902380218902D3
:104CE000D15070471D1D0020002011500B785B062D
:104CF00002D14B78052B00D070478A78014B1A609F
:104D0000FAE7C0460000115010B5CA789207920F1A
:104D1000012A0AD088780B79497909021943490593
:104D2000490DFFF729FF012010BD0020FCE710B559
:104D300002F0DAFA10BD000010B5040008001100FE
:104D40001A00002C03D1FFF73FFF012010BD034BD9
:104D5000034A812103488900FFF7BCF9947E0010C3
:104D60001C870010307E001010B57F23180008400B
:104D70000B4205D1CB09012B0ED00222074B9A66BC
:104D8000C909400040184001054BC018802212019B
:104D9000002102F0B1FA10BD0122EFE7002011500E
:104DA000B816002010B57F22100008400A4200D13A
:104DB00010BDC909400040184001044BC018002331
:104DC000C3700022024902F097FAF1E7B8160020FA
:104DD000FFF7FFFF04E00A780270013101301A008A
:104DE000531E002AF7D1704710B580235B040A4A8E
:104DF00013600A4A13600A4B1A6880235B049343CA
:104E0000F9D18022520100210648FEF75DF8064BD9
:104E100009225A6710BDC04600E0004000F0004083
:104E200008C00040000010500000115070B5040090
:104E30000D001600837E002B17D1A6820023E3828B
:104E40000133A3762561200002F05EFA002804D029
:104E50000C4A902380218902D150200002F05CFA94
:104E600000280AD00123237770BD81780648FFF718
:104E70009FFA200002F030FADFE7200002F024FA67
:104E8000F2E7C04600201150787F001070B5050091
:104E9000002408E09B1A5B01164A9B18DB68280077
:104EA00098470134E4B2144B1A782300511CA142F4
:104EB0000DDBA242EED9114B1B6862019B18002B3F
:104EC000ECD10F490F48104AFFF772FA10E00F4C6F
:104ED000542200212000FDF7F7FF201D1022FF21A2
:104EE000FDF7F2FF200014302022FF21FDF7ECFF38
:104EF00070BDC046DC8800101C1D0020A80F0020DB
:104F0000A8880010B07F0010250200005811002072
:104F10000268EFF3108172B61368002BFCD0BFF368
:104F20005F8F4160704710B5FFF7B0FF00F062FE81
:104F300010BD70B505000C001600486900F064FE55
:104F40006369320001212800984770BDF0B5DE4644
:104F500057464E464546E0B583B082460139C8B251
:104F6000FFF7F8FC002803D043789946022B0CD0B9
:104F700056495748574AFFF71BFA002003B0F0BCC8
:104F8000BB46B246A946A046F0BDC5796C110122C8
:104F9000514B1440240119781026B1432143197054
:104FA000AD112A405201C9B22024A1430A431A700C
:104FB000060009368278C3781B02134383469B445C
:104FC0004B460193370066E0FB7899463A78BF1864
:104FD00068E03E493E48414AFFF7EAF90020CDE744
:104FE000009AD31A5B013E4E9E19336922003900A4
:104FF00050469847082801D9844216D20135EDB2AF
:10500000384B1B7800955A1CAA423EDBAB42E7D9CD
:10501000354B1B686E019E19002EE6D12B492C489A
:10502000324AFFF7C5F90020A8E73400009E00903F
:105030004B46012B11D00020494681421BD9BB7839
:105040001B18DBB2244AD2181279FF2A0CD1224A4B
:10505000D3181D710130C0B2EFE72169244A914293
:10506000E9D1019B9946E6E718491948214AFFF71B
:105070009FF9002082E720482B00009C2200390085
:1050800001F07CFCA446674400E02E00154B1B7821
:1050900001339E420FDC5F4515D27B780B2B93D0FA
:1050A000012399467A78042A93D15B46DA1B93B29E
:1050B00000251C00A4E7852204490548D200FFF71B
:1050C00077F900205AE7012058E7C0467C88001095
:1050D000B07F0010D603000058110020F10300003B
:1050E000DC8800101C1D0020A80F0020FA0300001F
:1050F000B9600010190400006C110020704770475F
:10510000002070470020704770B505000C00CB7878
:1051100088780F2B53D89A002E498A589746FFF764
:1051200015FC021E05D012232100280000F016FDF8
:1051300046E0294929482A4AFFF73AF900203FE08A
:10514000FFF796F9021E3CD08178C3781B020B430F
:105150002100280000F002FD32E0022B0CD0FFF706
:10516000D1FF021E2FD09178D3781B020B43210070
:10517000280000F0F3FC23E0FFF7ECFB021EF2D165
:1051800015491648174AFFF713F9002018E023794C
:10519000617909021943FFF7E1FB021E15D003787C
:1051A0002100280000F0DAFC0AE0FFF7A9FF021E48
:1051B0000DD003782100280000F0D0FC00E0002092
:1051C00070BD0020FCE70020FAE70020F8E700208F
:1051D000F6E7C0467C87001064880010B07F00109E
:1051E0003A04000061040000704770477047704740
:1051F000024B5878431E9841C0B2704758110020A6
:10520000024B18784007C00F7047C0465811002065
:10521000034B1878FF38431E9841C0B27047C04610
:10522000640C0020F8B505000F00FFF7F1FF061E23
:1052300048D1002F21D02E4854220021FDF744FEF2
:105240002C4B00221A702C4C2000FBF7C5FF2B4B77
:105250001C602B4C2000FCF70BF8143C200001F0E4
:1052600024FF284B1C60284B002B04D02748FFF755
:105270001FF9274B1860002410E0E9222549264831
:105280005200FFF795F81DE09B1A5B01234A9B181B
:105290005B68002B10D098470134E4B21B4B1A789E
:1052A0002300511CA1420FDBA242EDD9184B1B6811
:1052B00062019B18002BEBD1F822164916485200C8
:1052C000FFF776F83000F8BD154B1D703900280047
:1052D000FFF7BEFC061E03D02800FFF785FCF1E7B0
:1052E000FC220C490C485200FFF762F8EAE7C0467E
:1052F000581100201E1D002050110020AC1100206C
:105300005C0C0020B0110020B14400101C1D0020D6
:10531000A80F0020CC880010B07F0010DC8800109F
:10532000640C002070B50D00104B1E788B78702235
:105330001A420DD10E4B9978280001F0C9FA041ECB
:105340000DD029003000FFF7DFFC0400200070BD05
:1053500008490948094AFFF72BF80024F6E70549F0
:105360000548074AFFF724F8F0E7C046640C002020
:105370005811002034880010B07F00100B05000089
:105380000C050000F0B5D6464F464646C0B58146EE
:105390000C0017009846089B9A46002517E018490C
:1053A0001848194AFFF704F800263000E0BCBA4656
:1053B000B146A846F0BD9D2211491248D200FEF721
:1053C000F7FFF2E7099A13702378E4180135AF422A
:1053D00014DD6378052BE2D1E1788907890F414517
:1053E000DDD121004846FFF79DFF061EE3D0A378DC
:1053F000DA09012AE6D052461370E5E70126D4E720
:1054000044880010B07F0010E704000010B57F2032
:105410000840C909400040183030044BC01804301F
:10542000034B196801F010FA10BDC0465811002056
:10543000AC11002010B57F200840C9094000401879
:105440003030044BC0180430034B196801F024FAC3
:1054500010BDC04658110020AC110020F0B5C64662
:1054600000B582B001931A4800787F250D40CE091F
:10547000184C6F00E419A41930342479E4071DD4C2
:10548000144C6F00E419A419303423790127BC4669
:1054900067463B432371019BFFF74EFC002813D165
:1054A0000C4B6D005B199B1930331A7901218A432B
:1054B0001A711A7903318A431A7105E006490748BF
:1054C000074AFEF775FF002002B080BCB846F0BD69
:1054D000640C00205811002024880010B07F0010B8
:1054E0003905000070B50A4B18787F240C40CD09AF
:1054F000FFF73AFC074A640013195B1930331A7935
:1055000002210A431A711A7901210A431A7170BDE6
:10551000640C00205811002070B50A4B18787F24C5
:105520000C40CD09FFF73EFC074A640013195B19D4
:1055300030331A7902218A431A711A7901398A4360
:105540001A7170BD640C0020581100207F220A409F
:10555000C909044B52009B185B1830331879800737
:10556000C00F704758110020F0B5C64600B582B094
:1055700005000C00002000F047FB237860221A4051
:10558000602A1AD0402A20D02378DB06DB0E012BBC
:1055900000D1D7E0022B00D117E1002B00D07DE134
:1055A000202A1CD0002A00D082E16378092B00D980
:1055B00080E19B00C64AD3589F465532C549C6482C
:1055C0009200FEF7F5FE002669E1C44800F01CFBDE
:1055D000220001212800FEF74FFF06005FE123793A
:1055E0000F2B00D960E1BE4AD3181B79BD4A12784F
:1055F000934207D2BC4A11685B01C918002909D13E
:1056000000264CE1511C994200DA4FE19B1A5B01E4
:10561000B649591822002800FFF78BFC06003EE12E
:10562000200000F0F7FAA1782800FFF7F3FAAC4A5F
:10563000137802210B431370012630E1A84B5B78ED
:105640006A460632137001232100280000F086FA12
:10565000012624E1A678A24B5B78DBB2B3422CD0C2
:105660009F4B5B78002B0CD19D4B5E70002E22D09F
:1056700031002800FFF76AFC061E12D0FFF7B4FDC8
:105680001BE000212800FFF723FB2800FFF74FFB5A
:10569000934FBB7898462800FFF7F8FB4346BB7052
:1056A000E2E7C9228B498C489200FEF781FE8C4BC1
:1056B00000225A70F3E0FFF798FD2100280000F067
:1056C00039FA0126EBE021002800FFF71DFD060056
:1056D000E5E0A278E3781B021343012B01D00026FA
:1056E000DDE07F4A137808210B4313702100280066
:1056F00000F020FA0126D2E0A278E3781B021343DF
:10570000012B01D00026CAE0754A137808218B438B
:1057100013702100280000F00DFA0126BFE0704B45
:105720001A785109920801230B4002210A401343C1
:105730006A460632138002232100280000F00EFA88
:105740000126ACE023790F2B00D9B5E0644AD318C9
:105750001B79644A1278934223D2634A11685B0131
:10576000C918002900D1A9E022002800FFF7E1FBB9
:10577000061E00D093E0237860221A4200D08EE00B
:1057800063780A3B012B00D989E0002000F03CFA45
:1057900063780A2B0ED02100280000F0CBF90126F7
:1057A0007DE0511C994200DA8AE09B1A5B014F4967
:1057B0005918D9E76B469A1D002313700133210055
:1057C000280000F0CBF9013669E021797F200840FC
:1057D000CE0970230B4217D1414B40001B189B1977
:1057E0001B7D40480078834215D23F4806685B0124
:1057F000F618002A19D0002E64D0220031002800AB
:10580000FFF797FB06004AE032493348384AFEF773
:10581000CFFD002643E0461C9E4204DB1B1A5B01C1
:10582000324E9E19E5E70026E3E76378012B10D09E
:10583000032B0ED0002B47D12800FFF787FE6B46C5
:105840009A1D108002232100280000F087F901260C
:1058500025E0A078E2781202024304D1012B19D08E
:105860002800FFF73FFE002E30D022003100280034
:10587000FFF75FFB002000F0C7F9194B35229B5C56
:10588000DB07DE0F002B0AD12100280000F052F9BF
:10589000012604E02800FFF73FFEE4E70026300081
:1058A00002B080BCB846F0BD0026F8E70026F6E757
:1058B0000026F4E70026F2E70026F0E70026EEE7F0
:1058C0000026ECE70026EAE70026E8E70126E6E7FF
:1058D000D887001090880010B07F00107944001025
:1058E000581100201C1D0020A80F0020DC8800108B
:1058F0009503000030B585B0FFF78AFC002808D179
:1059000005B030BD01AC2078FFF70DFB2279604B6C
:105910009A70604B1C6820001430FFF7F9FA01A957
:10592000200001F065FB6269A369BFF35F8F00216E
:10593000116083F310880028E2D001AB5B78082B5C
:10594000E7D89B00544AD3589F4601AB1878FFF71D
:10595000EAFAFFF74AFCDCE7504B1B78002B2DD00E
:105960004E4A1378013BDBB213701378002BD0D171
:10597000474B1A78012401210A431A703422995C9A
:10598000A1439954995C0420814399540132995C54
:10599000A1439954995C8143995401AB187802A9A9
:1059A000FFF7E2FD0028B4D101AC20780021FFF719
:1059B000DBF920788021FFF7D7F9AAE73849394881
:1059C000394AFEF7F5FC9BE701AB19797F220A40C3
:1059D000CC092F4B50001B181B19303318790125A7
:1059E000A843187118790335A8431871002A15D0F7
:1059F000274B52009B181B191B7D2C4A127893428F
:105A000013D22B4A12685B01D318002B15D09C6966
:105A100001A84279039B0078A0477AE701A8427960
:105A2000039B007800F004F973E7501C984204DBF4
:105A30009B1A5B011F4A9B18E9E7A42218491948E1
:105A40009200FEF7B5FC5BE7114B1B78DB0700D437
:105A50005FE70F4B18780007C00FFFF7C7FB58E749
:105A60000B4B1B78DB0700D453E7FFF7C0FB50E775
:105A7000029B002B00D14CE70398984749E7044B61
:105A8000DB78DB0700D444E70298FFF738FB40E7F8
:105A900058110020B0110020008800101E1D0020A9
:105AA000BC880010B07F0010650200001C1D0020A3
:105AB000A80F0020DC88001010B50023CB56002B67
:105AC00005DB802100230022FFF7C8FC10BD002168
:105AD000F8E70000F8B50500144B9F89DE89BB1B71
